S019000055384C3253656374696F6E5F55534152542E737265633D
S11300000C942A000C9447000C9447000C9447006D
S11300100C9447000C9447000C9447000C94470040
S11300200C9447000C9447000C9447000C94470030
S11300300C9447000C9447000C9447000C94470020
S11300400C9447000C9447000C9447000C94470010
S11300500C94470011241FBECFE5D8E0DEBFCDBF0E
S113006010E0A0E6B0E0ECE0F3E002C005900D92F1
S1130070AA36B107D9F720E0AAE6B0E001C01D9284
S1130080AA36B207E1F70E9439010C9484010C945A
S1130090000041E063E081E00E94D00083EF91E042
S11300A00197F1F700C0000040E063E081E00E94A6
S11300B0D0000895CF93C82F482F417064E080E0AA
S11300C00E94D000C1FB442740F965E080E00E9413
S11300D0D000C2FB442740F966E080E00E94D000D3
S11300E0C3FB442740F967E080E00E94D0000E94EF
S11300F04900CF910895CF93C82F40E061E081E09B
S11301000E94D00040E062E081E00E94D0008C2F89
S113011082958F700E945A008C2F0E945A00CF91B2
S11301200895CF93C82F41E061E081E00E94D000A0
S113013040E062E081E00E94D0008C2F82958F70B5
S11301400E945A008C2F0E945A00CF9108958FE08C
S113015097E20197F1F700C0000082E00E945A0084
S113016082E00E945A0088E00E945A008FE00E94B8
S11301707B0081E00E947B0008950F931F93CF932F
S11301808C01C0E003C00E949100CF5FF801EC0F26
S1130190F11D80818111F7CFCF911F910F910895A7
S11301A0683008F060C0423008F05FC08130E1F090
S11301B030F0823071F1833009F440C058C02BB361
S11301C081E090E0062E02C0880F991F0A94E2F79E
S11301D050E002C0440F551F6A95E2F780958223D0
S11301E0482B4BBB80E0089528B381E090E0062EB5
S11301F002C0880F991F0A94E2F750E002C0440F2E
S1130200551F6A95E2F780958223482B48BB80E00E
S1130210089525B381E090E0062E02C0880F991F4F
S11302200A94E2F750E002C0440F551F6A95E2F7C2
S113023080958223482B45BB80E0089522B381E05A
S113024090E0062E02C0880F991F0A94E2F750E04E
S113025002C0440F551F6A95E2F780958223482B0C
S113026042BB80E0089581E0089581E0089581E033
S113027008950E9453010E94A7000E945E0180E637
S113028090E00E94BD002FE38DE093E02150804078
S11302909040E1F700C0000081E00E947B0082E70B
S11302A00E948001FFCF8FEF8ABB8EE087BB14BA18
S11302B011BA1BBA18BA15BA12BA08958BB18D7F48
S11302C08BB910BC83E389B980B58F7B80BD80B5C1
S11302D0826080BD80B5846080BD8AB18B7F8AB91D
S11302E080B58F7E80BD80B58F7D80BD80B5877FD2
S11302F080BD8AB180618AB98AB188608AB908955B
S10F03005D9BFECF8CB90895F894FFCFEC
S10D030C5553415254544553540014
S9030000FC
