:100000000C942A000C943F000C943F000C943F0089
:100010000C943F000C943F000C943F000C943F0064
:100020000C943F000C943F000C943F000C943F0054
:100030000C943F000C943F000C943F000C943F0044
:100040000C943F000C943F000C943F000C943F0034
:100050000C943F0011241FBECFE5D8E0DEBFCDBF1A
:1000600010E0A0E6B0E0E4E0F3E002C005900D92FD
:10007000AA37B107D9F70E9460010C9480010C9453
:1000800000000F931F93CF93DF9300D000D0CDB724
:10009000DEB7082F84E0898385E08A8386E08B833E
:1000A00087E08C8310E014C0402F50E0012E02C086
:1000B000559547950A94E2F74170E1E0F0E0EC0FC6
:1000C000FD1FE10FF11D608180E00E94F7001F5FBE
:1000D000143050F30F900F900F900F90DF91CF914D
:1000E0001F910F91089541E063E081E00E94F700C5
:1000F00083EF91E00197F1F700C0000040E063E07A
:1001000081E00E94F7000895CF93C82F40E061E09E
:1001100081E00E94F70040E062E081E00E94F70089
:100120008C2F82958F700E9441000E9473008C2F4B
:100130000E9441000E947300CF910895CF93C82F71
:1001400041E061E081E00E94F70040E062E081E090
:100150000E94F7008C2F82958F700E9441000E94B0
:1001600073008C2F0E9441000E947300CF9108956C
:100170008FE097E20197F1F700C0000082E00E9453
:1001800041000E94730082E00E9441000E947300BF
:1001900088E00E9441000E9473008CE00E9484006D
:1001A00081E00E9484000895803148F4623038F480
:1001B00090E4699F800D112480680E948400089556
:1001C0000F931F93CF93009731F482E00CC00E94ED
:1001D0009E00CF5F02C08C01C0E0F801EC0FF11D62
:1001E00080818111F4CFCF911F910F9108956830D4
:1001F00008F060C0423008F05FC08130E1F030F0BC
:10020000823071F1833009F440C058C02BB381E0D3
:1002100090E0062E02C0880F991F0A94E2F750E082
:1002200002C0440F551F6A95E2F780958223482B40
:100230004BBB80E0089528B381E090E0062E02C019
:10024000880F991F0A94E2F750E002C0440F551F2F
:100250006A95E2F780958223482B48BB80E0089599
:1002600025B381E090E0062E02C0880F991F0A9402
:10027000E2F750E002C0440F551F6A95E2F78095FF
:100280008223482B45BB80E0089522B381E090E0B3
:10029000062E02C0880F991F0A94E2F750E002C0B0
:1002A000440F551F6A95E2F780958223482B42BB85
:1002B00080E0089581E0089581E0089581E0089547
:1002C0000E9475010E94B80060E082E00E94D400A4
:1002D00080E690E00E94E00061E080E00E94D400AF
:1002E0008BE690E00E94E000FFCF8FEF8ABB8EE0AC
:1002F00087BB14BA11BA1BBA18BA15BA12BA089544
:04030000F894FFCF9F
:1003040041686D65644D61686572004C6561726E2B
:0A03140020696E20446570746800D3
:00000001FF
