:020000040800F2
:1000000000280020810C0008D10C0008D10C000849
:10001000D10C0008D10C0008D10C00080000000031
:10002000000000000000000000000000D10C0008EB
:10003000D10C000800000000D10C0008D10C000811
:10004000D10C0008D10C0008D10C0008D10C00081C
:10005000D10C0008D10C0008F104000815050008B7
:10006000390500085D050008D10C0008D10C000816
:10007000D10C0008D10C0008D10C0008D10C0008EC
:10008000D10C0008D10C0008D10C0008D10C0008DC
:10009000D10C0008D10C0008D10C00088105000823
:1000A000D10C0008D10C0008D10C0008D10C0008BC
:1000B000D10C0008D10C0008D10C0008D10C0008AC
:1000C000D10C0008D10C0008D10C0008D10C00089C
:1000D000D10C0008D10C0008D10C0008D10C00088C
:1000E00031060008D10C000800000000D10C000807
:1000F000D10C0008D10C0008D10C0008D10C00086C
:10010000D10C0008D10C0008D10C0008D10C00085B
:10011000D10C0008D10C0008D10C0008D10C00084B
:10012000D10C0008D10C0008D10C0008D10C00083B
:1001300010B5054C237833B9044B13B10448AFF321
:1001400000800123237010BD1C000020000000006F
:100150002C0D000808B5034B1BB103490348AFF34E
:10016000008008BD00000000200000202C0D0008C9
:1001700080B500AF01220821002000F041FC0320DF
:1001800000F08CFC00220821002000F039FC00BFA8
:1001900080BD80B582B000AF0346FB71FB7903F0F0
:1001A0000103DBB21A461021002000F029FCFB7984
:1001B0005B08DBB203F00103DBB21A46202100200A
:1001C00000F01EFCFB799B08DBB203F00103DBB2FD
:1001D0001A464021002000F013FCFB79DB08DBB25B
:1001E00003F00103DBB21A468021002000F008FC76
:1001F000FFF7BEFF00BF0837BD4680BD80B582B0A7
:1002000000AF0346FB7100220221002000F0F8FB42
:1002100000220421002000F0F3FBFB791B09DBB274
:100220001846FFF7B6FFFB791846FFF7B2FF00BF8D
:100230000837BD4680BD80B582B000AF0346FB7174
:1002400001220221002000F0DBFB0022042100201B
:1002500000F0D6FBFB791B09DBB21846FFF799FFCC
:10026000FB791846FFF795FF00BF0837BD4680BDF4
:1002700080B500AF282000F011FC0220FFF789FFB5
:100280000220FFF786FF0820FFF783FF0C20FFF70F
:10029000B5FF0120FFF7B2FF00BF80BD80B584B07D
:1002A00000AF78600023FB7310E0FB7B7A68134497
:1002B0001B781846FFF7BFFFFB7B0133FB73FB7B0B
:1002C000102B03D10121002000F00BF8FB7B7A6892
:1002D00013441B78002BE8D100BF00BF1037BD4688
:1002E00080BD80B584B000AF03460A46FB7113465B
:1002F000BB71FB790F2B08D8BB79012B05D8BB79D3
:100300009B01DAB2FB791344FB73FB7B63F07F0341
:10031000FB73FB7B1846FFF771FF00BF1037BD462C
:1003200080BD000080B485B000AF03460A46FB7173
:100330001346BB710023FB73FB790F2B2DD8BB79C0
:10034000072B2AD8FB7903F00303DBB29B00BB73B6
:10035000FB799B087B73154A7B7B023352F8232081
:10036000BB7B6FF00F0101FA03F318460F497B7B4B
:100370000240023341F823200C4A7B7B023352F8BF
:100380002320B979BB7B01FA03F3184607497B7B2D
:100390000243023341F8232002E00123FB7300BF34
:1003A00000BF1437BD4680BC704700BF000001404D
:1003B00080B485B000AF78600023FB737B685B7806
:1003C000022B36D0022B4BDC002B02D0012B18D095
:1003D00046E0384B9B687A681278114601228A40C1
:1003E0001146344A0B439360324BDB687A681278CB
:1003F000114601228A40D24311462E4A0B40D36057
:1004000030E02C4BDB687A681278114601228A4072
:100410001146284A0B43D360264B9B687A681278B2
:10042000114601228A40D2431146224A0B40936072
:1004300018E0204B9B687A681278114601228A40A6
:1004400011461C4A0B4393601A4BDB687A6812789A
:10045000114601228A401146164A0B43D36001E03F
:100460000123FB737B689B78002B0DD0012B18D1E7
:10047000104B1B687A681278114601228A40114697
:100480000C4A0B4313600FE00A4B1B687A68127822
:10049000114601228A40D2431146064A0B4013609E
:1004A00002E00123FB7300BFFB7B18461437BD46F7
:1004B00080BC70470004014080B485B000AF0346A3
:1004C0003960FB710023FB733B68002B05D0FB797F
:1004D00006493A6841F8232001E00223FB73FB7BC5
:1004E00018461437BD4680BC704700BF3800002056
:1004F00080B500AF054B5B69044A43F001035361CB
:10050000034B1B68984700BF80BD00BF000401403B
:100510003800002080B500AF054B5B69044A43F00A
:1005200002035361034B5B68984700BF80BD00BF67
:10053000000401403800002080B500AF054B5B6926
:10054000044A43F004035361034B9B68984700BF80
:1005500080BD00BF000401403800002080B500AF1E
:10056000054B5B69044A43F008035361034BDB68A6
:10057000984700BF80BD00BF000401403800002044
:1005800080B500AF284B5B695B0903F00103012BC9
:1005900008D1254B5B69244A43F020035361234B68
:1005A0005B699847204B5B699B0903F00103012BB2
:1005B00008D11D4B5B691C4A43F0400353611B4B40
:1005C0009B699847184B5B69DB0903F00103012B1A
:1005D00008D1154B5B69144A43F080035361134BF8
:1005E000DB699847104B5B691B0A03F00103012B81
:1005F00008D10D4B5B690C4A43F4807353610B4B7C
:100600001B6A9847084B5B695B0A03F00103012BE7
:1006100008D1054B5B69044A43F400735361034BF3
:100620005B6A984700BF80BD00040140380000208D
:1006300080B500AF304B5B699B0A03F00103012BCF
:1006400008D12D4B5B692C4A43F4806353612B4BDB
:100650009B6A9847284B5B69DB0A03F00103012B77
:1006600008D1254B5B69244A43F400635361234B53
:10067000DB6A9847204B5B691B0B03F00103012BDE
:1006800008D11D4B5B691C4A43F4805353611B4BDB
:100690001B6B9847184B5B695B0B03F00103012B45
:1006A00008D1154B5B69144A43F400535361134B53
:1006B0005B6B9847104B5B699B0B03F00103012BAD
:1006C00008D10D4B5B690C4A43F4804353610B4BDB
:1006D0009B6B9847084B5B69DB0B03F00103012B15
:1006E00008D1054B5B69044A43F400435361034B53
:1006F000DB6B984700BF80BD00040140380000203C
:1007000080B485B000AF0346FB800023FB73FB88F9
:10071000B3F5004F00F0B880B3F5004F00F3B78099
:10072000B3F5804F00F0AD80B3F5804F00F3AF809C
:10073000B3F5005F00F0A280B3F5005F00F3A7807F
:10074000B3F5805F00F09780B3F5805F00F39F8082
:10075000B3F5006F00F08C80B3F5006F00F3978065
:10076000B3F5806F00F08180B3F5806F00F38F8068
:10077000B3F5007F76D0B3F5007F00F38880B3F542
:10078000807F6CD0B3F5807F00F38180802B63D0B5
:10079000802B7CDC202B47DC002B78DD013B1F2BE2
:1007A00075D801A252F823F02F0800083508000878
:1007B0008F0800083B0800088F0800088F08000811
:1007C0008F080008410800088F0800088F080008FB
:1007D0008F0800088F0800088F0800088F0800089D
:1007E0008F080008470800088F0800088F080008D5
:1007F0008F0800088F0800088F0800088F0800087D
:100800008F0800088F0800088F0800088F0800086C
:100810008F0800088F0800088F0800088F0800085C
:100820008F0800084D080008402B12D02FE000234D
:10083000FB732CE00423FB7329E00823FB7326E001
:100840000C23FB7323E01023FB7320E01423FB73C2
:100850001DE01823FB731AE01C23FB7317E0002331
:10086000FB7314E00423FB7311E00823FB730EE019
:100870000C23FB730BE01023FB7308E01423FB73C2
:1008800005E01823FB7302E01C23FB7300BFFB7B16
:1008900018461437BD4680BC704700BF90B587B07E
:1008A00000AF78600023FB7500233B610023FB73DE
:1008B0007B685B88FF2B06D87B681B881A464F4BEA
:1008C00053F8223006E07B681B881A464B4B53F8DE
:1008D000223004333B617B685B881846FFF710FFCA
:1008E00003461A460F239340DA433B691B681A40BC
:1008F0003B691A607B681B79042B0BD07B681B79E2
:10090000052B07D07B681B79062B03D07B681B79EE
:10091000072B0FD17B681B79043B9B005AB27B6885
:100920005B795BB213435BB2DBB203F00F03DBB264
:10093000FB734DE07B681B79012B0CBF0123002367
:10094000DAB27B681B79002B0CBF01230023DBB2DA
:100950001343DBB2002B08D07B681B799B00DBB212
:1009600003F00F03DBB2FB7332E07B681B79012BD2
:1009700002D10423FB732BE00823FB737B681B79F4
:10098000022B12D17B681B881A461C4B53F822306D
:10099000DA687B685B8819467B681B881846174BAA
:1009A00053F820300A43DA6012E07B681B881A464D
:1009B000124B53F82230DA687B685B88DB431946B8
:1009C0007B681B8818460D4B53F820300A40DA60CC
:1009D000FB7BDBB21C467B685B881846FFF790FE0A
:1009E000034604FA03F23B691B681A433B691A6029
:1009F000FB7D18461C37BD4690BD00BF000000209F
:100A000080B485B000AF0346FB800B46BB80134625
:100A1000FB700023FB73FB78002B08D0012B0DD15A
:100A2000FB880B4A52F82330BA881A6109E0FB8828
:100A3000074A52F82330BA885A6102E00123FB7357
:100A400000BFFB7B18461437BD4680BC704700BF13
:100A50000000002080B485B000AF0346FB71002386
:100A6000FB73FB795B09BB73FB7903F01F037B739B
:100A7000FB795F2B08D87B7B012202FA03F1064A3F
:100A8000BB7B42F8231001E00123FB73FB7B18467C
:100A90001437BD4680BC704700E100E080B485B0EB
:100AA00000AF78607B684FF47A7202FB03F3FB605F
:100AB000124AFB681360124B00221A60114B1B682C
:100AC000104A43F0010313600E4B1B680D4A23F0DC
:100AD0000403136000BF0B4B1B681B0C03F00103E6
:100AE000002BF8D0074B1B68064A23F00103136064
:100AF00000BF1437BD4680BC704700BF14E000E063
:100B000018E000E010E000E080B582B000AF00F037
:100B100015F800F02DF800F081F8FFF7A9FB00238D
:100B2000FB7100210220FFF7DCFB0120FFF766FBD1
:100B30000148FFF7B3FBFEE7440D000880B400AFA7
:100B40000A4B9B69094A43F004039361074B9B6975
:100B5000064A43F008039361044B9B69034A43F040
:100B60000103936100BFBD4680BC70470010024086
:100B700080B592B000AF3B1D40220021184600F026
:100B8000CDF80123FB8001233B720223FB81042368
:100B90003B7402237B740423FB8204233B760223F1
:100BA0007B760823FB83042387F82030022387F811
:100BB00021301023FB84042387F82830022387F890
:100BC00029302023FB85042387F83030022387F85F
:100BD00031304023FB86042387F83830022387F81E
:100BE00039308023FB87042387F84030022387F8BD
:100BF000413000237B6409E03A1D7B6CDB00134429
:100C00001846FFF74BFE7B6C01337B647B6C072B34
:100C1000F2DD00BF00BF4837BD4680BD80B582B061
:100C200000AF0620FFF716FF00210020FFF77AFB38
:100C3000094A3B1D1268114619800233120C1A70C2
:100C40003B1D1846FFF7B4FB04490020FFF734FCB6
:100C500000BF0837BD4680BD500D0008610C00087C
:100C600080B500AF0120FFF7C9FA0448FFF716FB73
:100C700002210120FFF735FB00BF80BD540D0008A5
:100C80000D488546AFF300800C480D490D4A0023FE
:100C900002E0D458C4500433C4188C42F9D30A4A31
:100CA0000A4C002301E013600432A242FBD300F09F
:100CB00011F8FFF729FFFEE70028002000000020C0
:100CC0001C0000206C0D00081C0000207800002093
:100CD000FEE7000070B500260C4D0D4C641BA410FF
:100CE000A64209D100F022F800260A4D0A4C641BE6
:100CF000A410A64205D170BD55F8043B98470136B3
:100D0000EEE755F8043B98470136F2E7640D00081A
:100D1000640D0008640D0008680D000803460244D5
:100D2000934200D1704703F8011BF9E7F8B500BF03
:100D3000F8BC08BC9E467047F8B500BFF8BC08BCBC
:040D40009E46704714
:100D4400546872656164204D6F64650000010100A0
:100D540048616E646C6572204D6F6465000000002C
:040D6400550100082D
:040D6800310100084D
:100D6C0000080140000C014000100140001401403B
:0C0D7C0000180140000000000000000012
:0400000508000C8162
:00000001FF
