:020000040800F2
:10000000002800203506000885060008850600083F
:100010008506000885060008850600080000000027
:10002000000000000000000000000000850600083D
:100030008506000800000000850600088506000807
:100040008506000885060008850600088506000864
:100050008506000885060008850600088506000854
:100060008506000885060008850600088506000844
:100070008506000885060008850600088506000834
:100080008506000885060008850600088506000824
:100090008506000885060008850600088506000814
:1000A0008506000885060008850600088506000804
:1000B00085060008850600088506000885060008F4
:1000C00085060008850600088506000885060008E4
:1000D00085060008850600088506000885060008D4
:1000E0008506000885060008000000008506000857
:1000F00085060008850600088506000885060008B4
:1001000085060008850600088506000885060008A3
:100110008506000885060008850600088506000893
:100120008506000885060008850600088506000883
:1001300010B5054C237833B9044B13B10448AFF321
:1001400000800123237010BD1C000020000000006F
:10015000E006000808B5034B1BB103490348AFF3A1
:10016000008008BD0000000020000020E00600081C
:1001700080B485B000AF0346FB800023FB73FB888F
:10018000B3F5004F00F0B880B3F5004F00F3B7802F
:10019000B3F5804F00F0AD80B3F5804F00F3AF8032
:1001A000B3F5005F00F0A280B3F5005F00F3A78015
:1001B000B3F5805F00F09780B3F5805F00F39F8018
:1001C000B3F5006F00F08C80B3F5006F00F39780FB
:1001D000B3F5806F00F08180B3F5806F00F38F80FE
:1001E000B3F5007F76D0B3F5007F00F38880B3F5D8
:1001F000807F6CD0B3F5807F00F38180802B63D04B
:10020000802B7CDC202B47DC002B78DD013B1F2B77
:1002100075D801A252F823F09F020008A502000839
:10022000FF020008AB020008FF020008FF020008FE
:10023000FF020008B1020008FF020008FF020008E8
:10024000FF020008FF020008FF020008FF0200088A
:10025000FF020008B7020008FF020008FF020008C2
:10026000FF020008FF020008FF020008FF0200086A
:10027000FF020008FF020008FF020008FF0200085A
:10028000FF020008FF020008FF020008FF0200084A
:10029000FF020008BD020008402B12D02FE000230F
:1002A000FB732CE00423FB7329E00823FB7326E097
:1002B0000C23FB7323E01023FB7320E01423FB7358
:1002C0001DE01823FB731AE01C23FB7317E00023C7
:1002D000FB7314E00423FB7311E00823FB730EE0AF
:1002E0000C23FB730BE01023FB7308E01423FB7358
:1002F00005E01823FB7302E01C23FB7300BFFB7BAC
:1003000018461437BD4680BC704700BF90B587B013
:1003100000AF78600023FB7500233B610023FB7373
:100320007B685B88FF2B06D87B681B881A464F4B7F
:1003300053F8223006E07B681B881A464B4B53F873
:10034000223004333B617B685B881846FFF710FF5F
:1003500003461A460F239340DA433B691B681A4051
:100360003B691A607B681B79042B0BD07B681B7977
:10037000052B07D07B681B79062B03D07B681B7984
:10038000072B0FD17B681B79043B9B005AB27B681B
:100390005B795BB213435BB2DBB203F00F03DBB2FA
:1003A000FB734DE07B681B79012B0CBF01230023FD
:1003B000DAB27B681B79002B0CBF01230023DBB270
:1003C0001343DBB2002B08D07B681B799B00DBB2A8
:1003D00003F00F03DBB2FB7332E07B681B79012B68
:1003E00002D10423FB732BE00823FB737B681B798A
:1003F000022B12D17B681B881A461C4B53F8223003
:10040000DA687B685B8819467B681B881846174B3F
:1004100053F820300A43DA6012E07B681B881A46E2
:10042000124B53F82230DA687B685B88DB4319464D
:100430007B681B8818460D4B53F820300A40DA6061
:10044000FB7BDBB21C467B685B881846FFF790FE9F
:10045000034604FA03F23B691B681A433B691A60BE
:10046000FB7D18461C37BD4690BD00BF0000002034
:1004700080B485B000AF03460A46FB801346BB80BC
:100480000023FB73FB88082B0FD8BB880F2B0CD8DD
:10049000FB880A4A52F82330D968BA88FB88074893
:1004A00050F823304A40DA6001E00123FB73FB7B04
:1004B00018461437BD4680BC704700BF00000020BE
:1004C00080B485B000AF03463A60FB800B46BB802A
:1004D0000023FB733B68002B17D0FB88072B11D838
:1004E000BB880F2B0ED8FB880C4A52F823309A6831
:1004F000BB8822FA03F3DBB203F00103DAB23B68F4
:100500001A7004E00123FB7301E00223FB73FB7B01
:1005100018461437BD4680BC704700BF000000205D
:1005200080B584B000AF00F037F800F049F8002340
:10053000BB6000237B6007F108031A4602210020FC
:10054000FFF7BEFF0AE002210120FFF791FF07F14C
:1005500008031A4602210020FFF7B2FFBB68002BF8
:10056000F1D00BE04FF400510120FFF781FF3B1D5C
:100570001A464FF400510020FFF7A2FF7B68012BC1
:10058000F0D00023FB6002E0FB680133FB60FB68F6
:10059000B3F5FA6FF8DBCEE780B400AF074B9B6989
:1005A000064A43F004039361044B9B69034A43F0FA
:1005B0000803936100BFBD4680BC70470010024035
:1005C00080B58AB000AF3B1D20220021184600F004
:1005D0007FF80223FB8001233B720123BB810223AE
:1005E000FB8104233B7402237B744FF40053FB8292
:1005F00001233B760123BB834FF40053FB83042389
:1006000087F82030022387F8213000237B6209E03D
:100610003A1D7B6ADB0013441846FFF777FE7B6ABE
:1006200001337B627B6A032BF2DD00BF00BF2837FA
:10063000BD4680BD0D488546AFF300800C480D498E
:100640000D4A002302E0D458C4500433C4188C422D
:10065000F9D30A4A0A4C002301E013600432A24293
:10066000FBD300F011F8FFF75BFFFEE70028002046
:10067000000000201C000020000700081C000020D3
:1006800038000020FEE7000070B500260C4D0D4C30
:10069000641BA410A64209D100F022F800260A4DDE
:1006A0000A4C641BA410A64205D170BD55F8043B4A
:1006B00098470136EEE755F8043B98470136F2E7D4
:1006C000F8060008F8060008F8060008FC0600080E
:1006D00003460244934200D1704703F8011BF9E737
:1006E000F8B500BFF8BC08BC9E467047F8B500BF1F
:0806F000F8BC08BC9E467047EF
:0406F80055010008A0
:0406FC0031010008C0
:1007000000080140000C01400010014000140140AD
:0C07100000180140000000000000000084
:0400000508000635B4
:00000001FF
