S010000045585449204C61622E73726563AB
S11300000C942A000C9455000C9471000C948D00EF
S11300100C9434000C9434000C9434000C9434008C
S11300200C9434000C9434000C9434000C9434007C
S11300300C9434000C9434000C9434000C9434006C
S11300400C9434000C9434000C9434000C9434005C
S11300500C94340011241FBECFE5D8E0DEBFCDBF21
S11300600E94B3000C94B9000C9400008BB7806418
S11300708BBF8BB780688BBF8BB780628BBF85B714
S1130080816085BF95B782E0892785BF85B7846085
S113009085BF85B7886085BF94B780E4892784BF0E
S11300A08BB780648BBF789408951F920F920FB61C
S11300B00F9211242F938F939F9382B3806282BBFC
S11300C02FEF89E698E1215080409040E1F700C08D
S11300D000009F918F912F910F900FBE0F901F9052
S11300E018951F920F920FB60F9211242F938F938E
S11300F09F9382B3806482BB2FEF89E698E12150FD
S113010080409040E1F700C000009F918F912F91B3
S11301100F900FBE0F901F9018951F920F920FB65D
S11301200F9211242F938F939F9382B3806882BB85
S11301302FEF89E698E1215080409040E1F700C01C
S113014000009F918F912F910F900FBE0F901F90E1
S1130150189581B3806281BB81B3806481BB81B314
S1130160806881BB08950E94A9000E94360012BADB
S1090170FECFF894FFCF5E
S9030000FC
